{
  "contractName": "LemonadeStand",
  "abi": [
    {
      "inputs": [],
      "payable": false,
      "stateMutability": "nonpayable",
      "type": "constructor"
    },
    {
      "anonymous": false,
      "inputs": [
        {
          "indexed": false,
          "internalType": "uint256",
          "name": "skuCount",
          "type": "uint256"
        }
      ],
      "name": "ForSale",
      "type": "event"
    },
    {
      "anonymous": false,
      "inputs": [
        {
          "indexed": false,
          "internalType": "uint256",
          "name": "sku",
          "type": "uint256"
        }
      ],
      "name": "Shipped",
      "type": "event"
    },
    {
      "anonymous": false,
      "inputs": [
        {
          "indexed": false,
          "internalType": "uint256",
          "name": "sku",
          "type": "uint256"
        }
      ],
      "name": "Sold",
      "type": "event"
    },
    {
      "constant": false,
      "inputs": [
        {
          "internalType": "string",
          "name": "_name",
          "type": "string"
        },
        {
          "internalType": "uint256",
          "name": "_price",
          "type": "uint256"
        }
      ],
      "name": "addItem",
      "outputs": [],
      "payable": false,
      "stateMutability": "nonpayable",
      "type": "function"
    },
    {
      "constant": false,
      "inputs": [
        {
          "internalType": "uint256",
          "name": "sku",
          "type": "uint256"
        }
      ],
      "name": "buyItem",
      "outputs": [],
      "payable": true,
      "stateMutability": "payable",
      "type": "function"
    },
    {
      "constant": true,
      "inputs": [
        {
          "internalType": "uint256",
          "name": "_sku",
          "type": "uint256"
        }
      ],
      "name": "fetchItem",
      "outputs": [
        {
          "internalType": "string",
          "name": "name",
          "type": "string"
        },
        {
          "internalType": "uint256",
          "name": "sku",
          "type": "uint256"
        },
        {
          "internalType": "uint256",
          "name": "price",
          "type": "uint256"
        },
        {
          "internalType": "string",
          "name": "stateIs",
          "type": "string"
        },
        {
          "internalType": "address",
          "name": "seller",
          "type": "address"
        },
        {
          "internalType": "address",
          "name": "buyer",
          "type": "address"
        }
      ],
      "payable": false,
      "stateMutability": "view",
      "type": "function"
    },
    {
      "constant": false,
      "inputs": [
        {
          "internalType": "uint256",
          "name": "_sku",
          "type": "uint256"
        }
      ],
      "name": "shipItem",
      "outputs": [],
      "payable": false,
      "stateMutability": "nonpayable",
      "type": "function"
    }
  ],
  "bytecode": "0x608060405234801561001057600080fd5b50336000806101000a81548173ffffffffffffffffffffffffffffffffffffffff021916908373ffffffffffffffffffffffffffffffffffffffff1602179055506000600181905550610ae2806100686000396000f3fe60806040526004361061003f5760003560e01c806362d6bbdf14610044578063ad4b9cfb14610116578063e7fb74c7146102aa578063f61c899a146102d8575b600080fd5b34801561005057600080fd5b506101146004803603604081101561006757600080fd5b810190808035906020019064010000000081111561008457600080fd5b82018360208201111561009657600080fd5b803590602001918460018302840111640100000000831117156100b857600080fd5b91908080601f016020809104026020016040519081016040528093929190818152602001838380828437600081840152601f19601f82011690508083019250505050505050919291929080359060200190929190505050610313565b005b34801561012257600080fd5b5061014f6004803603602081101561013957600080fd5b810190808035906020019092919050505061051c565b6040518080602001878152602001868152602001806020018573ffffffffffffffffffffffffffffffffffffffff1673ffffffffffffffffffffffffffffffffffffffff1681526020018473ffffffffffffffffffffffffffffffffffffffff1673ffffffffffffffffffffffffffffffffffffffff168152602001838103835289818151815260200191508051906020019080838360005b838110156102035780820151818401526020810190506101e8565b50505050905090810190601f1680156102305780820380516001836020036101000a031916815260200191505b50838103825286818151815260200191508051906020019080838360005b8381101561026957808201518184015260208101905061024e565b50505050905090810190601f1680156102965780820380516001836020036101000a031916815260200191505b509850505050505050505060405180910390f35b6102d6600480360360208110156102c057600080fd5b810190808035906020019092919050505061073c565b005b3480156102e457600080fd5b50610311600480360360208110156102fb57600080fd5b8101908080359060200190929190505050610915565b005b6000809054906101000a900473ffffffffffffffffffffffffffffffffffffffff1673ffffffffffffffffffffffffffffffffffffffff163373ffffffffffffffffffffffffffffffffffffffff161461036c57600080fd5b60018054016001819055507fa96ae0fc3224ebd79eebfe54bd130cc9cb94416cddd1f2386115e00b725324686001546040518082815260200191505060405180910390a16040518060c001604052808381526020016001548152602001828152602001600060028111156103dc57fe5b81526020013373ffffffffffffffffffffffffffffffffffffffff168152602001600073ffffffffffffffffffffffffffffffffffffffff168152506002600060015481526020019081526020016000206000820151816000019080519060200190610449929190610a08565b50602082015181600101556040820151816002015560608201518160030160006101000a81548160ff0219169083600281111561048257fe5b021790555060808201518160030160016101000a81548173ffffffffffffffffffffffffffffffffffffffff021916908373ffffffffffffffffffffffffffffffffffffffff16021790555060a08201518160040160006101000a81548173ffffffffffffffffffffffffffffffffffffffff021916908373ffffffffffffffffffffffffffffffffffffffff1602179055509050505050565b606060008060606000806000600260008981526020019081526020016000206000018054600181600116156101000203166002900480601f0160208091040260200160405190810160405280929190818152602001828054600181600116156101000203166002900480156105d25780601f106105a7576101008083540402835291602001916105d2565b820191906000526020600020905b8154815290600101906020018083116105b557829003601f168201915b5050505050965060026000898152602001908152602001600020600101549550600260008981526020019081526020016000206002015494506002600089815260200190815260200160002060030160009054906101000a900460ff16600281111561063a57fe5b9050600081141561067e576040518060400160405280600881526020017f466f722053616c6500000000000000000000000000000000000000000000000081525093505b60018114156106c0576040518060400160405280600481526020017f536f6c640000000000000000000000000000000000000000000000000000000081525093505b6002600089815260200190815260200160002060030160019054906101000a900473ffffffffffffffffffffffffffffffffffffffff1692506002600089815260200190815260200160002060040160009054906101000a900473ffffffffffffffffffffffffffffffffffffffff1691505091939550919395565b806000600281111561074a57fe5b6002600083815260200190815260200160002060030160009054906101000a900460ff16600281111561077957fe5b1461078357600080fd5b6002600083815260200190815260200160002060020154803410156107a757600080fd5b6000339050600060026000868152602001908152602001600020600201549050816002600087815260200190815260200160002060040160006101000a81548173ffffffffffffffffffffffffffffffffffffffff021916908373ffffffffffffffffffffffffffffffffffffffff16021790555060016002600087815260200190815260200160002060030160006101000a81548160ff0219169083600281111561084f57fe5b021790555060006002600087815260200190815260200160002060030160019054906101000a900473ffffffffffffffffffffffffffffffffffffffff1690508073ffffffffffffffffffffffffffffffffffffffff166108fc839081150290604051600060405180830381858888f193505050501580156108d5573d6000803e3d6000fd5b507f92f64ca637d023f354075a4be751b169c1a8a9ccb6d33cdd0cb3520543995727866040518082815260200191505060405180910390a1505050505050565b806001600281111561092357fe5b6002600083815260200190815260200160002060030160009054906101000a900460ff16600281111561095257fe5b1461095c57600080fd5b338073ffffffffffffffffffffffffffffffffffffffff163373ffffffffffffffffffffffffffffffffffffffff161461099557600080fd5b600280600085815260200190815260200160002060030160006101000a81548160ff021916908360028111156109c757fe5b02179055507ff00b9a5725b80c54016f42114f6ed7792d22eecb116011c4afac29c57bef6c95836040518082815260200191505060405180910390a1505050565b828054600181600116156101000203166002900490600052602060002090601f016020900481019282601f10610a4957805160ff1916838001178555610a77565b82800160010185558215610a77579182015b82811115610a76578251825591602001919060010190610a5b565b5b509050610a849190610a88565b5090565b610aaa91905b80821115610aa6576000816000905550600101610a8e565b5090565b9056fea265627a7a72315820ef057300b5edee056ba4b22c93fbfbf284e56810699e0e2ae6bcea0c5abb373564736f6c63430005100032",
  "source": "// SPDX-License-Identifier: MIT\r\npragma solidity >=0.4.22 <0.9.0;\r\n\r\ncontract LemonadeStand {\r\n    address owner;\r\n    uint skuCount;\r\n\r\n    enum State {ForSale, Sold, Shipped }\r\n\r\n    struct Item {\r\n        string name;\r\n        uint sku;\r\n        uint price;\r\n        State state;\r\n        address payable seller;\r\n        address payable buyer;\r\n    }\r\n\r\n    mapping(uint => Item) items;\r\n\r\n    event ForSale(uint skuCount);\r\n\r\n    event Sold(uint sku);\r\n\r\n    event Shipped(uint sku);\r\n\r\n    modifier onlyOwner() {\r\n        require((msg.sender == owner));\r\n        _;\r\n    }\r\n\r\n    \r\n    modifier verifyCaller(address _address) {\r\n        require((msg.sender == _address));\r\n        _;\r\n    }    \r\n\r\n    modifier paidEnough(uint _price) {\r\n        require(msg.value >= _price);\r\n        _;\r\n    }        \r\n\r\n    modifier forSale(uint _sku) {\r\n        require(items[_sku].state == State.ForSale);\r\n        _;\r\n    }        \r\n\r\n    modifier sold(uint _sku) {\r\n        require(items[_sku].state == State.Sold);\r\n        _;\r\n    }            \r\n\r\n    modifier checkValue(uint _sku) {\r\n        _;\r\n        uint _price = items[_sku].price;\r\n        uint amountToRefund = msg.value - _price;\r\n\r\n        address payable buyerPayableAddress = items[_sku].buyer;\r\n        buyerPayableAddress.transfer(amountToRefund);\r\n    }\r\n\r\n    constructor()  public {\r\n        owner = msg.sender;\r\n        skuCount = 0;\r\n    }\r\n\r\n    function addItem(string memory _name, uint _price) onlyOwner public {\r\n        skuCount = skuCount + 1;\r\n\r\n        emit ForSale(skuCount);\r\n\r\n        items[skuCount] = Item({name: _name, sku: skuCount, price: _price, state: State.ForSale, seller: msg.sender, buyer: address(0)});\r\n    }\r\n\r\n    function buyItem(uint sku) public payable forSale(sku) paidEnough(items[sku].price) {\r\n        address payable buyer = msg.sender;\r\n        uint price = items[sku].price;\r\n\r\n        items[sku].buyer = buyer;\r\n        items[sku].state = State.Sold;\r\n\r\n        // Transfer money to seller\r\n        address payable sellerPayableAddress = items[sku].seller;\r\n        sellerPayableAddress.transfer(price);\r\n        \r\n        emit Sold(sku);\r\n    }\r\n\r\n    function fetchItem(uint _sku) public view returns (string memory name, uint sku, uint price, string memory  stateIs, address seller, address buyer) {\r\n        uint state;\r\n        name = items[_sku].name;\r\n        sku  = items[_sku].sku;\r\n        price = items[_sku].price;\r\n        state = uint(items[_sku].state);\r\n        if(state == 0) {\r\n            stateIs = \"For Sale\";\r\n        }\r\n        if(state == 1) {\r\n            stateIs = \"Sold\";\r\n        }\r\n        seller = items[_sku].seller;\r\n        buyer = items[_sku].buyer;\r\n    }\r\n\r\n    function shipItem(uint _sku) public sold(_sku) verifyCaller(msg.sender) {        \r\n        items[_sku].state = State.Shipped;\r\n        emit Shipped(_sku);\r\n    }\r\n}",
  "sourcePath": "E:\\ws\\Lemonade\\supplychain-smartcontract\\contracts\\LemonadeStand.sol",
  "compiler": {
    "name": "solc",
    "version": "0.5.16+commit.9c3226ce.Emscripten.clang"
  },
  "schemaVersion": "3.4.2",
  "updatedAt": "2021-08-08T19:43:59.515Z",
  "devdoc": {
    "methods": {}
  },
  "userdoc": {
    "methods": {}
  }
}