{
  "contractName": "LemonadeStand",
  "abi": [
    {
      "inputs": [],
      "payable": false,
      "stateMutability": "nonpayable",
      "type": "constructor"
    },
    {
      "anonymous": false,
      "inputs": [
        {
          "indexed": false,
          "internalType": "uint256",
          "name": "skuCount",
          "type": "uint256"
        }
      ],
      "name": "ForSale",
      "type": "event"
    },
    {
      "anonymous": false,
      "inputs": [
        {
          "indexed": false,
          "internalType": "uint256",
          "name": "sku",
          "type": "uint256"
        }
      ],
      "name": "Sold",
      "type": "event"
    },
    {
      "constant": false,
      "inputs": [
        {
          "internalType": "string",
          "name": "_name",
          "type": "string"
        },
        {
          "internalType": "uint256",
          "name": "_price",
          "type": "uint256"
        }
      ],
      "name": "addItem",
      "outputs": [],
      "payable": false,
      "stateMutability": "nonpayable",
      "type": "function"
    },
    {
      "constant": false,
      "inputs": [
        {
          "internalType": "uint256",
          "name": "sku",
          "type": "uint256"
        }
      ],
      "name": "buyItem",
      "outputs": [],
      "payable": true,
      "stateMutability": "payable",
      "type": "function"
    },
    {
      "constant": true,
      "inputs": [
        {
          "internalType": "uint256",
          "name": "_sku",
          "type": "uint256"
        }
      ],
      "name": "fetchItem",
      "outputs": [
        {
          "internalType": "string",
          "name": "name",
          "type": "string"
        },
        {
          "internalType": "uint256",
          "name": "sku",
          "type": "uint256"
        },
        {
          "internalType": "uint256",
          "name": "price",
          "type": "uint256"
        },
        {
          "internalType": "string",
          "name": "stateIs",
          "type": "string"
        },
        {
          "internalType": "address",
          "name": "seller",
          "type": "address"
        },
        {
          "internalType": "address",
          "name": "buyer",
          "type": "address"
        }
      ],
      "payable": false,
      "stateMutability": "view",
      "type": "function"
    }
  ],
  "bytecode": "0x608060405234801561001057600080fd5b50336000806101000a81548173ffffffffffffffffffffffffffffffffffffffff021916908373ffffffffffffffffffffffffffffffffffffffff16021790555060006001819055506109a9806100686000396000f3fe6080604052600436106100345760003560e01c806362d6bbdf14610039578063ad4b9cfb1461010b578063e7fb74c71461029f575b600080fd5b34801561004557600080fd5b506101096004803603604081101561005c57600080fd5b810190808035906020019064010000000081111561007957600080fd5b82018360208201111561008b57600080fd5b803590602001918460018302840111640100000000831117156100ad57600080fd5b91908080601f016020809104026020016040519081016040528093929190818152602001838380828437600081840152601f19601f820116905080830192505050505050509192919290803590602001909291905050506102cd565b005b34801561011757600080fd5b506101446004803603602081101561012e57600080fd5b81019080803590602001909291905050506104d6565b6040518080602001878152602001868152602001806020018573ffffffffffffffffffffffffffffffffffffffff1673ffffffffffffffffffffffffffffffffffffffff1681526020018473ffffffffffffffffffffffffffffffffffffffff1673ffffffffffffffffffffffffffffffffffffffff168152602001838103835289818151815260200191508051906020019080838360005b838110156101f85780820151818401526020810190506101dd565b50505050905090810190601f1680156102255780820380516001836020036101000a031916815260200191505b50838103825286818151815260200191508051906020019080838360005b8381101561025e578082015181840152602081019050610243565b50505050905090810190601f16801561028b5780820380516001836020036101000a031916815260200191505b509850505050505050505060405180910390f35b6102cb600480360360208110156102b557600080fd5b81019080803590602001909291905050506106f6565b005b6000809054906101000a900473ffffffffffffffffffffffffffffffffffffffff1673ffffffffffffffffffffffffffffffffffffffff163373ffffffffffffffffffffffffffffffffffffffff161461032657600080fd5b60018054016001819055507fa96ae0fc3224ebd79eebfe54bd130cc9cb94416cddd1f2386115e00b725324686001546040518082815260200191505060405180910390a16040518060c0016040528083815260200160015481526020018281526020016000600181111561039657fe5b81526020013373ffffffffffffffffffffffffffffffffffffffff168152602001600073ffffffffffffffffffffffffffffffffffffffff1681525060026000600154815260200190815260200160002060008201518160000190805190602001906104039291906108cf565b50602082015181600101556040820151816002015560608201518160030160006101000a81548160ff0219169083600181111561043c57fe5b021790555060808201518160030160016101000a81548173ffffffffffffffffffffffffffffffffffffffff021916908373ffffffffffffffffffffffffffffffffffffffff16021790555060a08201518160040160006101000a81548173ffffffffffffffffffffffffffffffffffffffff021916908373ffffffffffffffffffffffffffffffffffffffff1602179055509050505050565b606060008060606000806000600260008981526020019081526020016000206000018054600181600116156101000203166002900480601f01602080910402602001604051908101604052809291908181526020018280546001816001161561010002031660029004801561058c5780601f106105615761010080835404028352916020019161058c565b820191906000526020600020905b81548152906001019060200180831161056f57829003601f168201915b5050505050965060026000898152602001908152602001600020600101549550600260008981526020019081526020016000206002015494506002600089815260200190815260200160002060030160009054906101000a900460ff1660018111156105f457fe5b90506000811415610638576040518060400160405280600881526020017f466f722053616c6500000000000000000000000000000000000000000000000081525093505b600181141561067a576040518060400160405280600481526020017f536f6c640000000000000000000000000000000000000000000000000000000081525093505b6002600089815260200190815260200160002060030160019054906101000a900473ffffffffffffffffffffffffffffffffffffffff1692506002600089815260200190815260200160002060040160009054906101000a900473ffffffffffffffffffffffffffffffffffffffff1691505091939550919395565b806000600181111561070457fe5b6002600083815260200190815260200160002060030160009054906101000a900460ff16600181111561073357fe5b1461073d57600080fd5b60026000838152602001908152602001600020600201548034101561076157600080fd5b6000339050600060026000868152602001908152602001600020600201549050816002600087815260200190815260200160002060040160006101000a81548173ffffffffffffffffffffffffffffffffffffffff021916908373ffffffffffffffffffffffffffffffffffffffff16021790555060016002600087815260200190815260200160002060030160006101000a81548160ff0219169083600181111561080957fe5b021790555060006002600087815260200190815260200160002060030160019054906101000a900473ffffffffffffffffffffffffffffffffffffffff1690508073ffffffffffffffffffffffffffffffffffffffff166108fc839081150290604051600060405180830381858888f1935050505015801561088f573d6000803e3d6000fd5b507f92f64ca637d023f354075a4be751b169c1a8a9ccb6d33cdd0cb3520543995727866040518082815260200191505060405180910390a1505050505050565b828054600181600116156101000203166002900490600052602060002090601f016020900481019282601f1061091057805160ff191683800117855561093e565b8280016001018555821561093e579182015b8281111561093d578251825591602001919060010190610922565b5b50905061094b919061094f565b5090565b61097191905b8082111561096d576000816000905550600101610955565b5090565b9056fea265627a7a72315820bd20df8c1dadb4e779cc6679aed8be66ae0bcd8057a5888dd82ab3a0b92aff6a64736f6c63430005100032",
  "source": "// SPDX-License-Identifier: MIT\r\npragma solidity >=0.4.22 <0.9.0;\r\n\r\ncontract LemonadeStand {\r\n    address owner;\r\n    uint skuCount;\r\n\r\n    enum State {ForSale, Sold }\r\n\r\n    struct Item {\r\n        string name;\r\n        uint sku;\r\n        uint price;\r\n        State state;\r\n        address payable seller;\r\n        address buyer;\r\n    }\r\n\r\n    mapping(uint => Item) items;\r\n\r\n    event ForSale(uint skuCount);\r\n\r\n    event Sold(uint sku);\r\n\r\n    modifier onlyOwner() {\r\n        require((msg.sender == owner));\r\n        _;\r\n    }\r\n\r\n    \r\n    modifier verifyCaller(address _address) {\r\n        require((msg.sender == _address));\r\n        _;\r\n    }    \r\n\r\n    modifier paidEnough(uint _price) {\r\n        require(msg.value >= _price);\r\n        _;\r\n    }        \r\n\r\n    modifier forSale(uint _sku) {\r\n        require(items[_sku].state == State.ForSale);\r\n        _;\r\n    }        \r\n\r\n    modifier sold(uint _sku) {\r\n        require(items[_sku].state == State.Sold);\r\n        _;\r\n    }            \r\n\r\n    constructor()  public {\r\n        owner = msg.sender;\r\n        skuCount = 0;\r\n    }\r\n\r\n    function addItem(string memory _name, uint _price) onlyOwner public {\r\n        skuCount = skuCount + 1;\r\n\r\n        emit ForSale(skuCount);\r\n\r\n        items[skuCount] = Item({name: _name, sku: skuCount, price: _price, state: State.ForSale, seller: msg.sender, buyer: address(0)});\r\n    }\r\n\r\n    function buyItem(uint sku) public payable forSale(sku) paidEnough(items[sku].price) {\r\n        address buyer = msg.sender;\r\n        uint price = items[sku].price;\r\n\r\n        items[sku].buyer = buyer;\r\n        items[sku].state = State.Sold;\r\n\r\n        // Transfer money to seller\r\n        address payable sellerPayableAddress = items[sku].seller;\r\n        sellerPayableAddress.transfer(price);\r\n        \r\n        emit Sold(sku);\r\n    }\r\n\r\n    function fetchItem(uint _sku) public view returns (string memory name, uint sku, uint price, string memory  stateIs, address seller, address buyer) {\r\n        uint state;\r\n        name = items[_sku].name;\r\n        sku  = items[_sku].sku;\r\n        price = items[_sku].price;\r\n        state = uint(items[_sku].state);\r\n        if(state == 0) {\r\n            stateIs = \"For Sale\";\r\n        }\r\n        if(state == 1) {\r\n            stateIs = \"Sold\";\r\n        }\r\n        seller = items[_sku].seller;\r\n        buyer = items[_sku].buyer;\r\n    }\r\n}",
  "sourcePath": "E:\\ws\\Lemonade\\supplychain-smartcontract\\contracts\\LemonadeStand.sol",
  "compiler": {
    "name": "solc",
    "version": "0.5.16+commit.9c3226ce.Emscripten.clang"
  },
  "schemaVersion": "3.4.2",
  "updatedAt": "2021-08-08T19:30:15.168Z",
  "devdoc": {
    "methods": {}
  },
  "userdoc": {
    "methods": {}
  }
}